{
  "contractName": "Twitter",
  "abi": [
    {
      "anonymous": false,
      "inputs": [
        {
          "indexed": true,
          "internalType": "address",
          "name": "_instructor",
          "type": "address"
        },
        {
          "indexed": true,
          "internalType": "address",
          "name": "_user",
          "type": "address"
        },
        {
          "components": [
            {
              "internalType": "uint256",
              "name": "time",
              "type": "uint256"
            },
            {
              "internalType": "address",
              "name": "to",
              "type": "address"
            },
            {
              "internalType": "uint256",
              "name": "no",
              "type": "uint256"
            },
            {
              "internalType": "bool",
              "name": "userwithdraw",
              "type": "bool"
            },
            {
              "internalType": "bool",
              "name": "instructorwithdraw",
              "type": "bool"
            }
          ],
          "indexed": false,
          "internalType": "struct Twitter.room",
          "name": "",
          "type": "tuple"
        }
      ],
      "name": "roomcreated",
      "type": "event"
    },
    {
      "stateMutability": "payable",
      "type": "receive",
      "payable": true
    },
    {
      "inputs": [
        {
          "internalType": "address",
          "name": "_address",
          "type": "address"
        }
      ],
      "name": "checkfollowing",
      "outputs": [
        {
          "internalType": "bool",
          "name": "",
          "type": "bool"
        }
      ],
      "stateMutability": "view",
      "type": "function",
      "constant": true
    },
    {
      "inputs": [
        {
          "internalType": "address",
          "name": "_address",
          "type": "address"
        }
      ],
      "name": "checkotheruser",
      "outputs": [
        {
          "internalType": "bool",
          "name": "",
          "type": "bool"
        }
      ],
      "stateMutability": "view",
      "type": "function",
      "constant": true
    },
    {
      "inputs": [],
      "name": "checkuserexist",
      "outputs": [
        {
          "internalType": "bool",
          "name": "",
          "type": "bool"
        }
      ],
      "stateMutability": "view",
      "type": "function",
      "constant": true
    },
    {
      "inputs": [],
      "name": "checkinstructorexist",
      "outputs": [
        {
          "internalType": "bool",
          "name": "",
          "type": "bool"
        }
      ],
      "stateMutability": "view",
      "type": "function",
      "constant": true
    },
    {
      "inputs": [
        {
          "internalType": "address",
          "name": "_address1",
          "type": "address"
        }
      ],
      "name": "checkotherinstructorexist",
      "outputs": [
        {
          "internalType": "bool",
          "name": "",
          "type": "bool"
        }
      ],
      "stateMutability": "view",
      "type": "function",
      "constant": true
    },
    {
      "inputs": [
        {
          "internalType": "string",
          "name": "_username",
          "type": "string"
        }
      ],
      "name": "registerasUser",
      "outputs": [],
      "stateMutability": "nonpayable",
      "type": "function"
    },
    {
      "inputs": [
        {
          "internalType": "string",
          "name": "_username",
          "type": "string"
        },
        {
          "internalType": "string",
          "name": "_filehash",
          "type": "string"
        },
        {
          "internalType": "string",
          "name": "_qr",
          "type": "string"
        }
      ],
      "name": "registerasInstructor",
      "outputs": [],
      "stateMutability": "nonpayable",
      "type": "function"
    },
    {
      "inputs": [
        {
          "internalType": "address",
          "name": "_address",
          "type": "address"
        }
      ],
      "name": "showinstructor",
      "outputs": [
        {
          "components": [
            {
              "internalType": "uint256",
              "name": "ID",
              "type": "uint256"
            },
            {
              "internalType": "string",
              "name": "username",
              "type": "string"
            },
            {
              "internalType": "address",
              "name": "pubkey",
              "type": "address"
            },
            {
              "internalType": "uint256",
              "name": "nooffollower",
              "type": "uint256"
            },
            {
              "internalType": "address[]",
              "name": "followers",
              "type": "address[]"
            },
            {
              "internalType": "uint256",
              "name": "postcount",
              "type": "uint256"
            },
            {
              "internalType": "enum Twitter.Status",
              "name": "status",
              "type": "uint8"
            },
            {
              "internalType": "string",
              "name": "fileHash",
              "type": "string"
            },
            {
              "internalType": "string",
              "name": "qr",
              "type": "string"
            }
          ],
          "internalType": "struct Twitter.Instructor",
          "name": "",
          "type": "tuple"
        }
      ],
      "stateMutability": "view",
      "type": "function",
      "constant": true
    },
    {
      "inputs": [
        {
          "internalType": "address",
          "name": "_address",
          "type": "address"
        }
      ],
      "name": "follow",
      "outputs": [],
      "stateMutability": "nonpayable",
      "type": "function"
    },
    {
      "inputs": [
        {
          "internalType": "address",
          "name": "_address",
          "type": "address"
        }
      ],
      "name": "showusername",
      "outputs": [
        {
          "components": [
            {
              "internalType": "uint256",
              "name": "ID",
              "type": "uint256"
            },
            {
              "internalType": "string",
              "name": "username",
              "type": "string"
            },
            {
              "internalType": "address",
              "name": "pubkey",
              "type": "address"
            },
            {
              "internalType": "address[]",
              "name": "following",
              "type": "address[]"
            }
          ],
          "internalType": "struct Twitter.User",
          "name": "",
          "type": "tuple"
        }
      ],
      "stateMutability": "view",
      "type": "function",
      "constant": true
    },
    {
      "inputs": [
        {
          "internalType": "string",
          "name": "_cid",
          "type": "string"
        }
      ],
      "name": "createpost",
      "outputs": [],
      "stateMutability": "nonpayable",
      "type": "function"
    },
    {
      "inputs": [],
      "name": "showpostcount",
      "outputs": [
        {
          "internalType": "uint256",
          "name": "",
          "type": "uint256"
        }
      ],
      "stateMutability": "view",
      "type": "function",
      "constant": true
    },
    {
      "inputs": [],
      "name": "showpost",
      "outputs": [
        {
          "components": [
            {
              "internalType": "uint256",
              "name": "ID",
              "type": "uint256"
            },
            {
              "internalType": "string",
              "name": "content",
              "type": "string"
            },
            {
              "internalType": "uint256",
              "name": "nooflikes",
              "type": "uint256"
            },
            {
              "internalType": "uint256",
              "name": "upvote",
              "type": "uint256"
            }
          ],
          "internalType": "struct Twitter.Post[]",
          "name": "",
          "type": "tuple[]"
        }
      ],
      "stateMutability": "view",
      "type": "function",
      "constant": true
    },
    {
      "inputs": [
        {
          "internalType": "uint256",
          "name": "_id",
          "type": "uint256"
        }
      ],
      "name": "likepost",
      "outputs": [],
      "stateMutability": "nonpayable",
      "type": "function"
    },
    {
      "inputs": [
        {
          "internalType": "address",
          "name": "_address",
          "type": "address"
        }
      ],
      "name": "unfollow",
      "outputs": [],
      "stateMutability": "nonpayable",
      "type": "function"
    },
    {
      "inputs": [
        {
          "internalType": "address",
          "name": "_address",
          "type": "address"
        }
      ],
      "name": "showpostofanaddress",
      "outputs": [
        {
          "components": [
            {
              "internalType": "uint256",
              "name": "ID",
              "type": "uint256"
            },
            {
              "internalType": "string",
              "name": "content",
              "type": "string"
            },
            {
              "internalType": "uint256",
              "name": "nooflikes",
              "type": "uint256"
            },
            {
              "internalType": "uint256",
              "name": "upvote",
              "type": "uint256"
            }
          ],
          "internalType": "struct Twitter.Post[]",
          "name": "",
          "type": "tuple[]"
        }
      ],
      "stateMutability": "view",
      "type": "function",
      "constant": true
    },
    {
      "inputs": [
        {
          "internalType": "uint256",
          "name": "_id",
          "type": "uint256"
        },
        {
          "internalType": "bool",
          "name": "_check",
          "type": "bool"
        }
      ],
      "name": "review",
      "outputs": [],
      "stateMutability": "payable",
      "type": "function",
      "payable": true
    },
    {
      "inputs": [
        {
          "internalType": "address",
          "name": "_address",
          "type": "address"
        }
      ],
      "name": "getinstructirsusername",
      "outputs": [
        {
          "components": [
            {
              "internalType": "uint256",
              "name": "ID",
              "type": "uint256"
            },
            {
              "internalType": "string",
              "name": "username",
              "type": "string"
            },
            {
              "internalType": "address",
              "name": "pubkey",
              "type": "address"
            },
            {
              "internalType": "uint256",
              "name": "nooffollower",
              "type": "uint256"
            },
            {
              "internalType": "address[]",
              "name": "followers",
              "type": "address[]"
            },
            {
              "internalType": "uint256",
              "name": "postcount",
              "type": "uint256"
            },
            {
              "internalType": "enum Twitter.Status",
              "name": "status",
              "type": "uint8"
            },
            {
              "internalType": "string",
              "name": "fileHash",
              "type": "string"
            },
            {
              "internalType": "string",
              "name": "qr",
              "type": "string"
            }
          ],
          "internalType": "struct Twitter.Instructor",
          "name": "",
          "type": "tuple"
        }
      ],
      "stateMutability": "view",
      "type": "function",
      "constant": true
    },
    {
      "inputs": [
        {
          "internalType": "address",
          "name": "_address",
          "type": "address"
        }
      ],
      "name": "connectwithinstructor",
      "outputs": [],
      "stateMutability": "payable",
      "type": "function",
      "payable": true
    },
    {
      "inputs": [
        {
          "internalType": "address",
          "name": "_address2",
          "type": "address"
        },
        {
          "internalType": "string",
          "name": "_msg",
          "type": "string"
        }
      ],
      "name": "sendMessage",
      "outputs": [],
      "stateMutability": "nonpayable",
      "type": "function"
    },
    {
      "inputs": [
        {
          "internalType": "address",
          "name": "_address",
          "type": "address"
        },
        {
          "internalType": "bool",
          "name": "check",
          "type": "bool"
        }
      ],
      "name": "satisfied",
      "outputs": [],
      "stateMutability": "nonpayable",
      "type": "function"
    },
    {
      "inputs": [
        {
          "internalType": "address",
          "name": "_address",
          "type": "address"
        }
      ],
      "name": "withdrawFunds",
      "outputs": [],
      "stateMutability": "payable",
      "type": "function",
      "payable": true
    },
    {
      "inputs": [
        {
          "internalType": "address",
          "name": "_address2",
          "type": "address"
        }
      ],
      "name": "readMessage",
      "outputs": [
        {
          "components": [
            {
              "internalType": "address",
              "name": "sender",
              "type": "address"
            },
            {
              "internalType": "uint256",
              "name": "timestamp",
              "type": "uint256"
            },
            {
              "internalType": "string",
              "name": "message",
              "type": "string"
            }
          ],
          "internalType": "struct Twitter.Message[]",
          "name": "",
          "type": "tuple[]"
        }
      ],
      "stateMutability": "view",
      "type": "function",
      "constant": true
    }
  ],
  "bytecode": "0x608060405234801561001057600080fd5b50615d3c80620000216000396000f3fe6080604052600436106101445760003560e01c806387fbafae116100b6578063e3f1b8601161006f578063e3f1b86014610459578063e57f31a714610496578063e6377a71146104bf578063e7c3aba1146104db578063f70affc014610518578063f742fbfc146105555761014b565b806387fbafae1461033b5780638bac88f2146103645780639dac3971146103a1578063af5d5933146103ca578063d16a380214610407578063de6f24bb146104305761014b565b80632ec33845116101085780632ec338451461022857806332fba6b9146102655780634dbf27cc146102a257806368742da6146102cb578063829d32eb146102e757806382c4b00d146103105761014b565b8063015a4ead1461015057806310eeca0b14610179578063150ad280146101a4578063178f4b6c146101c0578063255e9c11146101eb5761014b565b3661014b57005b600080fd5b34801561015c57600080fd5b5061017760048036038101906101729190613dc3565b610580565b005b34801561018557600080fd5b5061018e610901565b60405161019b9190613fbe565b60405180910390f35b6101be60048036038101906101b99190614044565b610a10565b005b3480156101cc57600080fd5b506101d5610cb9565b6040516101e29190614093565b60405180910390f35b3480156101f757600080fd5b50610212600480360381019061020d9190613dc3565b610d65565b60405161021f91906141cf565b60405180910390f35b34801561023457600080fd5b5061024f600480360381019061024a9190613dc3565b610ed8565b60405161025c9190614093565b60405180910390f35b34801561027157600080fd5b5061028c60048036038101906102879190613dc3565b611006565b60405161029991906143f1565b60405180910390f35b3480156102ae57600080fd5b506102c960048036038101906102c49190613dc3565b61139b565b005b6102e560048036038101906102e09190613dc3565b611692565b005b3480156102f357600080fd5b5061030e60048036038101906103099190614478565b611a84565b005b34801561031c57600080fd5b50610325611d1e565b60405161033291906144d4565b60405180910390f35b34801561034757600080fd5b50610362600480360381019061035d919061461f565b611d68565b005b34801561037057600080fd5b5061038b60048036038101906103869190613dc3565b6120f0565b6040516103989190614093565b60405180910390f35b3480156103ad57600080fd5b506103c860048036038101906103c39190614668565b61219e565b005b3480156103d657600080fd5b506103f160048036038101906103ec9190613dc3565b6122e3565b6040516103fe9190613fbe565b60405180910390f35b34801561041357600080fd5b5061042e60048036038101906104299190614695565b612479565b005b34801561043c57600080fd5b5061045760048036038101906104529190614749565b612a03565b005b34801561046557600080fd5b50610480600480360381019061047b9190613dc3565b612dd0565b60405161048d9190614813565b60405180910390f35b3480156104a257600080fd5b506104bd60048036038101906104b89190614835565b612ff1565b005b6104d960048036038101906104d49190613dc3565b6130aa565b005b3480156104e757600080fd5b5061050260048036038101906104fd9190613dc3565b613667565b60405161050f91906143f1565b60405180910390f35b34801561052457600080fd5b5061053f600480360381019061053a9190613dc3565b6139b4565b60405161054c9190614093565b60405180910390f35b34801561056157600080fd5b5061056a613a62565b6040516105779190614093565b60405180910390f35b61058981610ed8565b6105c8576040517f08c379a00000000000000000000000000000000000000000000000000000000081526004016105bf906148d2565b60405180910390fd5b60005b600860003373ffffffffffffffffffffffffffffffffffffffff1673ffffffffffffffffffffffffffffffffffffffff16815260200190815260200160002060030180549050811015610762578173ffffffffffffffffffffffffffffffffffffffff16600860003373ffffffffffffffffffffffffffffffffffffffff1673ffffffffffffffffffffffffffffffffffffffff1681526020019081526020016000206003018281548110610683576106826148f2565b5b9060005260206000200160009054906101000a900473ffffffffffffffffffffffffffffffffffffffff1673ffffffffffffffffffffffffffffffffffffffff160361074f57600860003373ffffffffffffffffffffffffffffffffffffffff1673ffffffffffffffffffffffffffffffffffffffff168152602001908152602001600020600301818154811061071d5761071c6148f2565b5b9060005260206000200160006101000a81549073ffffffffffffffffffffffffffffffffffffffff0219169055610762565b808061075a90614950565b9150506105cb565b5060005b600660008373ffffffffffffffffffffffffffffffffffffffff1673ffffffffffffffffffffffffffffffffffffffff168152602001908152602001600020600401805490508110156108fd573373ffffffffffffffffffffffffffffffffffffffff16600660008473ffffffffffffffffffffffffffffffffffffffff1673ffffffffffffffffffffffffffffffffffffffff168152602001908152602001600020600401828154811061081e5761081d6148f2565b5b9060005260206000200160009054906101000a900473ffffffffffffffffffffffffffffffffffffffff1673ffffffffffffffffffffffffffffffffffffffff16036108ea57600660008373ffffffffffffffffffffffffffffffffffffffff1673ffffffffffffffffffffffffffffffffffffffff16815260200190815260200160002060040181815481106108b8576108b76148f2565b5b9060005260206000200160006101000a81549073ffffffffffffffffffffffffffffffffffffffff02191690556108fd565b80806108f590614950565b915050610766565b5050565b6060600a805480602002602001604051908101604052809291908181526020016000905b82821015610a07578382906000526020600020906004020160405180608001604052908160008201548152602001600182018054610962906149c7565b80601f016020809104026020016040519081016040528092919081815260200182805461098e906149c7565b80156109db5780601f106109b0576101008083540402835291602001916109db565b820191906000526020600020905b8154815290600101906020018083116109be57829003601f168201915b505050505081526020016002820154815260200160038201548152505081526020019060010190610925565b50505050905090565b610a18610cb9565b610a57576040517f08c379a0000000000000000000000000000000000000000000000000000000008152600401610a4e90614a44565b60405180910390fd5b600e60003373ffffffffffffffffffffffffffffffffffffffff1673ffffffffffffffffffffffffffffffffffffffff168152602001908152602001600020600083815260200190815260200160002060009054906101000a900460ff1615610af5576040517f08c379a0000000000000000000000000000000000000000000000000000000008152600401610aec90614ab0565b60405180910390fd5b6001600e60003373ffffffffffffffffffffffffffffffffffffffff1673ffffffffffffffffffffffffffffffffffffffff168152602001908152602001600020600084815260200190815260200160002060006101000a81548160ff0219169083151502179055506001151581151503610c7957600a8281548110610b7e57610b7d6148f2565b5b90600052602060002090600402016003016000815480929190610ba090614950565b91905055503373ffffffffffffffffffffffffffffffffffffffff166108fc66038d7ea4c680009081150290604051600060405180830381858888f19350505050158015610bf2573d6000803e3d6000fd5b506009600083815260200190815260200160002060009054906101000a900473ffffffffffffffffffffffffffffffffffffffff1673ffffffffffffffffffffffffffffffffffffffff166108fc66038d7ea4c680009081150290604051600060405180830381858888f19350505050158015610c73573d6000803e3d6000fd5b50610cb5565b600a8281548110610c8d57610c8c6148f2565b5b90600052602060002090600402016003016000815480929190610caf90614ad0565b91905055505b5050565b600080600090505b600180549050811015610d5c573373ffffffffffffffffffffffffffffffffffffffff1660018281548110610cf957610cf86148f2565b5b9060005260206000200160009054906101000a900473ffffffffffffffffffffffffffffffffffffffff1673ffffffffffffffffffffffffffffffffffffffff1603610d49576001915050610d62565b8080610d5490614950565b915050610cc1565b50600090505b90565b60606000610d733384613b0e565b905060056000828152602001908152602001600020805480602002602001604051908101604052809291908181526020016000905b82821015610ecc57838290600052602060002090600302016040518060600160405290816000820160009054906101000a900473ffffffffffffffffffffffffffffffffffffffff1673ffffffffffffffffffffffffffffffffffffffff1673ffffffffffffffffffffffffffffffffffffffff16815260200160018201548152602001600282018054610e3b906149c7565b80601f0160208091040260200160405190810160405280929190818152602001828054610e67906149c7565b8015610eb45780601f10610e8957610100808354040283529160200191610eb4565b820191906000526020600020905b815481529060010190602001808311610e9757829003601f168201915b50505050508152505081526020019060010190610da8565b50505050915050919050565b600080600090505b600860003373ffffffffffffffffffffffffffffffffffffffff1673ffffffffffffffffffffffffffffffffffffffff16815260200190815260200160002060030180549050811015610ffb578273ffffffffffffffffffffffffffffffffffffffff16600860003373ffffffffffffffffffffffffffffffffffffffff1673ffffffffffffffffffffffffffffffffffffffff1681526020019081526020016000206003018281548110610f9857610f976148f2565b5b9060005260206000200160009054906101000a900473ffffffffffffffffffffffffffffffffffffffff1673ffffffffffffffffffffffffffffffffffffffff1603610fe8576001915050611001565b8080610ff390614950565b915050610ee0565b50600090505b919050565b61100e613ba6565b611017826139b4565b611056576040517f08c379a000000000000000000000000000000000000000000000000000000000815260040161104d90614b45565b60405180910390fd5b600660008373ffffffffffffffffffffffffffffffffffffffff1673ffffffffffffffffffffffffffffffffffffffff16815260200190815260200160002060405180610120016040529081600082015481526020016001820180546110bb906149c7565b80601f01602080910402602001604051908101604052809291908181526020018280546110e7906149c7565b80156111345780601f1061110957610100808354040283529160200191611134565b820191906000526020600020905b81548152906001019060200180831161111757829003601f168201915b505050505081526020016002820160009054906101000a900473ffffffffffffffffffffffffffffffffffffffff1673ffffffffffffffffffffffffffffffffffffffff1673ffffffffffffffffffffffffffffffffffffffff168152602001600382015481526020016004820180548060200260200160405190810160405280929190818152602001828054801561122257602002820191906000526020600020905b8160009054906101000a900473ffffffffffffffffffffffffffffffffffffffff1673ffffffffffffffffffffffffffffffffffffffff16815260200190600101908083116111d8575b50505050508152602001600582015481526020016006820160009054906101000a900460ff16600181111561125a576112596142a0565b5b600181111561126c5761126b6142a0565b5b8152602001600782018054611280906149c7565b80601f01602080910402602001604051908101604052809291908181526020018280546112ac906149c7565b80156112f95780601f106112ce576101008083540402835291602001916112f9565b820191906000526020600020905b8154815290600101906020018083116112dc57829003601f168201915b50505050508152602001600882018054611312906149c7565b80601f016020809104026020016040519081016040528092919081815260200182805461133e906149c7565b801561138b5780601f106113605761010080835404028352916020019161138b565b820191906000526020600020905b81548152906001019060200180831161136e57829003601f168201915b5050505050815250509050919050565b6113a3613a62565b6113e2576040517f08c379a00000000000000000000000000000000000000000000000000000000081526004016113d990614bb1565b60405180910390fd5b6113eb816120f0565b1561142b576040517f08c379a000000000000000000000000000000000000000000000000000000000815260040161142290614c1d565b60405180910390fd5b61143481610ed8565b15611474576040517f08c379a000000000000000000000000000000000000000000000000000000000815260040161146b90614c89565b60405180910390fd5b600660008273ffffffffffffffffffffffffffffffffffffffff1673ffffffffffffffffffffffffffffffffffffffff16815260200190815260200160002060030160008154809291906114c790614950565b9190505550600660008273ffffffffffffffffffffffffffffffffffffffff1673ffffffffffffffffffffffffffffffffffffffff168152602001908152602001600020600401339080600181540180825580915050600190039060005260206000200160009091909190916101000a81548173ffffffffffffffffffffffffffffffffffffffff021916908373ffffffffffffffffffffffffffffffffffffffff160217905550600c600660008373ffffffffffffffffffffffffffffffffffffffff1673ffffffffffffffffffffffffffffffffffffffff16815260200190815260200160002060000154815481106115c5576115c46148f2565b5b906000526020600020906009020160030160008154809291906115e790614950565b9190505550600860003373ffffffffffffffffffffffffffffffffffffffff1673ffffffffffffffffffffffffffffffffffffffff168152602001908152602001600020600301819080600181540180825580915050600190039060005260206000200160009091909190916101000a81548173ffffffffffffffffffffffffffffffffffffffff021916908373ffffffffffffffffffffffffffffffffffffffff16021790555050565b61169a610cb9565b806116a957506116a8613a62565b5b6116e8576040517f08c379a00000000000000000000000000000000000000000000000000000000081526004016116df90614cf5565b60405180910390fd5b603c600f60006116f83385613b0e565b8152602001908152602001600020600001546117149190614d15565b421015611756576040517f08c379a000000000000000000000000000000000000000000000000000000000815260040161174d90614d95565b60405180910390fd5b60006703782dace9d90000600f600061176f3386613b0e565b81526020019081526020016000206002015461178b9190614db5565b905060006703782dace9d90000600f60006117a63387613b0e565b81526020019081526020016000206002015460046117c49190614df7565b6117ce9190614db5565b90506117d8613a62565b156118d45760001515600f60006117ef3387613b0e565b815260200190815260200160002060030160009054906101000a900460ff16151514611850576040517f08c379a000000000000000000000000000000000000000000000000000000000815260040161184790614e77565b60405180910390fd5b3373ffffffffffffffffffffffffffffffffffffffff166108fc839081150290604051600060405180830381858888f19350505050158015611896573d6000803e3d6000fd5b506001600f60006118a73387613b0e565b815260200190815260200160002060030160006101000a81548160ff021916908315150217905550611a7f565b6118dc610cb9565b15611a435760001515600f60006118f33387613b0e565b815260200190815260200160002060030160019054906101000a900460ff16151514611954576040517f08c379a000000000000000000000000000000000000000000000000000000000815260040161194b90614e77565b60405180910390fd5b3373ffffffffffffffffffffffffffffffffffffffff166108fc829081150290604051600060405180830381858888f1935050505015801561199a573d6000803e3d6000fd5b506001600f60006119ab3387613b0e565b815260200190815260200160002060030160016101000a81548160ff0219169083151502179055506000600660003373ffffffffffffffffffffffffffffffffffffffff1673ffffffffffffffffffffffffffffffffffffffff16815260200190815260200160002060060160006101000a81548160ff02191690836001811115611a3957611a386142a0565b5b0217905550611a7e565b6040517f08c379a0000000000000000000000000000000000000000000000000000000008152600401611a7590614ee3565b60405180910390fd5b5b505050565b611a8c610cb9565b611acb576040517f08c379a0000000000000000000000000000000000000000000000000000000008152600401611ac290614f4f565b60405180910390fd5b600a6040518060800160405280600454815260200184848080601f016020809104026020016040519081016040528093929190818152602001838380828437600081840152601f19601f8201169050808301925050505050505081526020016000815260200160008152509080600181540180825580915050600190039060005260206000209060040201600090919091909150600082015181600001556020820151816001019081611b7e919061511b565b5060408201518160020155606082015181600301555050600660003373ffffffffffffffffffffffffffffffffffffffff1673ffffffffffffffffffffffffffffffffffffffff1681526020019081526020016000206005016000815480929190611be890614950565b9190505550600760003373ffffffffffffffffffffffffffffffffffffffff1673ffffffffffffffffffffffffffffffffffffffff168152602001908152602001600020600a60045481548110611c4257611c416148f2565b5b906000526020600020906004020190806001815401808255809150506001900390600052602060002090600402016000909190919091506000820154816000015560018201816001019081611c979190615203565b50600282015481600201556003820154816003015550503360096000600454815260200190815260200160002060006101000a81548173ffffffffffffffffffffffffffffffffffffffff021916908373ffffffffffffffffffffffffffffffffffffffff16021790555060046000815480929190611d1590614950565b91905055505050565b6000600660003373ffffffffffffffffffffffffffffffffffffffff1673ffffffffffffffffffffffffffffffffffffffff16815260200190815260200160002060050154905090565b6000815111611dac576040517f08c379a0000000000000000000000000000000000000000000000000000000008152600401611da390615337565b60405180910390fd5b611db4613a62565b15611df4576040517f08c379a0000000000000000000000000000000000000000000000000000000008152600401611deb906153a3565b60405180910390fd5b611dfc610cb9565b15611e3c576040517f08c379a0000000000000000000000000000000000000000000000000000000008152600401611e3390615435565b60405180910390fd5b600b604051806080016040528060025481526020018381526020013373ffffffffffffffffffffffffffffffffffffffff168152602001600067ffffffffffffffff811115611e8e57611e8d6144f4565b5b604051908082528060200260200182016040528015611ebc5781602001602082028036833780820191505090505b508152509080600181540180825580915050600190039060005260206000209060040201600090919091909150600082015181600001556020820151816001019081611f08919061511b565b5060408201518160020160006101000a81548173ffffffffffffffffffffffffffffffffffffffff021916908373ffffffffffffffffffffffffffffffffffffffff1602179055506060820151816003019080519060200190611f6c929190613c1a565b505050600b60025481548110611f8557611f846148f2565b5b9060005260206000209060040201600860003373ffffffffffffffffffffffffffffffffffffffff1673ffffffffffffffffffffffffffffffffffffffff1681526020019081526020016000206000820154816000015560018201816001019081611ff09190615203565b506002820160009054906101000a900473ffffffffffffffffffffffffffffffffffffffff168160020160006101000a81548173ffffffffffffffffffffffffffffffffffffffff021916908373ffffffffffffffffffffffffffffffffffffffff160217905550600382018160030190805461206e929190613ca4565b509050506000339080600181540180825580915050600190039060005260206000200160009091909190916101000a81548173ffffffffffffffffffffffffffffffffffffffff021916908373ffffffffffffffffffffffffffffffffffffffff160217905550600260008154809291906120e890614950565b919050555050565b600080600090505b600080549050811015612193578273ffffffffffffffffffffffffffffffffffffffff16600082815481106121305761212f6148f2565b5b9060005260206000200160009054906101000a900473ffffffffffffffffffffffffffffffffffffffff1673ffffffffffffffffffffffffffffffffffffffff1603612180576001915050612199565b808061218b90614950565b9150506120f8565b50600090505b919050565b600d60003373ffffffffffffffffffffffffffffffffffffffff1673ffffffffffffffffffffffffffffffffffffffff168152602001908152602001600020600082815260200190815260200160002060009054906101000a900460ff161561223c576040517f08c379a0000000000000000000000000000000000000000000000000000000008152600401612233906154a1565b60405180910390fd5b6001600d60003373ffffffffffffffffffffffffffffffffffffffff1673ffffffffffffffffffffffffffffffffffffffff168152602001908152602001600020600083815260200190815260200160002060006101000a81548160ff021916908315150217905550600a81815481106122b9576122b86148f2565b5b906000526020600020906004020160020160008154809291906122db90614950565b919050555050565b60606122ee82610ed8565b61232d576040517f08c379a00000000000000000000000000000000000000000000000000000000081526004016123249061550d565b60405180910390fd5b600760008373ffffffffffffffffffffffffffffffffffffffff1673ffffffffffffffffffffffffffffffffffffffff168152602001908152602001600020805480602002602001604051908101604052809291908181526020016000905b8282101561246e5783829060005260206000209060040201604051806080016040529081600082015481526020016001820180546123c9906149c7565b80601f01602080910402602001604051908101604052809291908181526020018280546123f5906149c7565b80156124425780601f1061241757610100808354040283529160200191612442565b820191906000526020600020905b81548152906001019060200180831161242557829003601f168201915b50505050508152602001600282015481526020016003820154815250508152602001906001019061238c565b505050509050919050565b60008686905011801561248f5750600084849050115b6124ce576040517f08c379a00000000000000000000000000000000000000000000000000000000081526004016124c59061559f565b60405180910390fd5b6124d6613a62565b15612516576040517f08c379a000000000000000000000000000000000000000000000000000000000815260040161250d9061560b565b60405180910390fd5b61251e610cb9565b1561255e576040517f08c379a000000000000000000000000000000000000000000000000000000000815260040161255590615435565b60405180910390fd5b600c604051806101200160405280600354815260200188888080601f016020809104026020016040519081016040528093929190818152602001838380828437600081840152601f19601f8201169050808301925050505050505081526020013373ffffffffffffffffffffffffffffffffffffffff16815260200160008152602001600067ffffffffffffffff8111156125fc576125fb6144f4565b5b60405190808252806020026020018201604052801561262a5781602001602082028036833780820191505090505b508152602001600081526020016000600181111561264b5761264a6142a0565b5b815260200186868080601f016020809104026020016040519081016040528093929190818152602001838380828437600081840152601f19601f82011690508083019250505050505050815260200184848080601f016020809104026020016040519081016040528093929190818152602001838380828437600081840152601f19601f82011690508083019250505050505050815250908060018154018082558091505060019003906000526020600020906009020160009091909190915060008201518160000155602082015181600101908161272a919061511b565b5060408201518160020160006101000a81548173ffffffffffffffffffffffffffffffffffffffff021916908373ffffffffffffffffffffffffffffffffffffffff160217905550606082015181600301556080820151816004019080519060200190612798929190613c1a565b5060a0820151816005015560c08201518160060160006101000a81548160ff021916908360018111156127ce576127cd6142a0565b5b021790555060e08201518160070190816127e8919061511b565b506101008201518160080190816127ff919061511b565b5050506001339080600181540180825580915050600190039060005260206000200160009091909190916101000a81548173ffffffffffffffffffffffffffffffffffffffff021916908373ffffffffffffffffffffffffffffffffffffffff160217905550600c6003548154811061287b5761287a6148f2565b5b9060005260206000209060090201600660003373ffffffffffffffffffffffffffffffffffffffff1673ffffffffffffffffffffffffffffffffffffffff16815260200190815260200160002060008201548160000155600182018160010190816128e69190615203565b506002820160009054906101000a900473ffffffffffffffffffffffffffffffffffffffff168160020160006101000a81548173ffffffffffffffffffffffffffffffffffffffff021916908373ffffffffffffffffffffffffffffffffffffffff16021790555060038201548160030155600482018160040190805461296e929190613ca4565b50600582015481600501556006820160009054906101000a900460ff168160060160006101000a81548160ff021916908360018111156129b1576129b06142a0565b5b0217905550600782018160070190816129ca9190615203565b50600882018160080190816129df9190615203565b50905050600360008154809291906129f690614950565b9190505550505050505050565b612a0b613a62565b80612a1a5750612a19610cb9565b5b612a59576040517f08c379a0000000000000000000000000000000000000000000000000000000008152600401612a5090615677565b60405180910390fd5b612a61613a62565b15612b86573373ffffffffffffffffffffffffffffffffffffffff16600f6000612a8b3387613b0e565b815260200190815260200160002060010160009054906101000a900473ffffffffffffffffffffffffffffffffffffffff1673ffffffffffffffffffffffffffffffffffffffff1614612b13576040517f08c379a0000000000000000000000000000000000000000000000000000000008152600401612b0a906156e3565b60405180910390fd5b603c600f6000612b233387613b0e565b815260200190815260200160002060000154612b3f9190614d15565b421115612b81576040517f08c379a0000000000000000000000000000000000000000000000000000000008152600401612b7890614d95565b60405180910390fd5b612ca2565b8273ffffffffffffffffffffffffffffffffffffffff16600f6000612bab3387613b0e565b815260200190815260200160002060010160009054906101000a900473ffffffffffffffffffffffffffffffffffffffff1673ffffffffffffffffffffffffffffffffffffffff1614612c33576040517f08c379a0000000000000000000000000000000000000000000000000000000008152600401612c2a90615729565b60405180910390fd5b603c600f6000612c433387613b0e565b815260200190815260200160002060000154612c5f9190614d15565b421115612ca1576040517f08c379a0000000000000000000000000000000000000000000000000000000008152600401612c9890614d95565b60405180910390fd5b5b6000612cae3385613b0e565b90506005600082815260200190815260200160002060405180606001604052803373ffffffffffffffffffffffffffffffffffffffff16815260200142815260200185858080601f016020809104026020016040519081016040528093929190818152602001838380828437600081840152601f19601f82011690508083019250505050505050815250908060018154018082558091505060019003906000526020600020906003020160009091909190915060008201518160000160006101000a81548173ffffffffffffffffffffffffffffffffffffffff021916908373ffffffffffffffffffffffffffffffffffffffff160217905550602082015181600101556040820151816002019081612dc7919061511b565b50505050505050565b612dd8613cf6565b612de1826120f0565b612e20576040517f08c379a0000000000000000000000000000000000000000000000000000000008152600401612e1790615795565b60405180910390fd5b600860008373ffffffffffffffffffffffffffffffffffffffff1673ffffffffffffffffffffffffffffffffffffffff16815260200190815260200160002060405180608001604052908160008201548152602001600182018054612e84906149c7565b80601f0160208091040260200160405190810160405280929190818152602001828054612eb0906149c7565b8015612efd5780601f10612ed257610100808354040283529160200191612efd565b820191906000526020600020905b815481529060010190602001808311612ee057829003601f168201915b505050505081526020016002820160009054906101000a900473ffffffffffffffffffffffffffffffffffffffff1673ffffffffffffffffffffffffffffffffffffffff1673ffffffffffffffffffffffffffffffffffffffff16815260200160038201805480602002602001604051908101604052809291908181526020018280548015612fe157602002820191906000526020600020905b8160009054906101000a900473ffffffffffffffffffffffffffffffffffffffff1673ffffffffffffffffffffffffffffffffffffffff1681526020019060010190808311612f97575b5050505050815250509050919050565b612ff9613a62565b801561302557506000600f60006130103386613b0e565b81526020019081526020016000206002015410155b613064576040517f08c379a000000000000000000000000000000000000000000000000000000000815260040161305b90615801565b60405180910390fd5b60011515811515036130a657600f600061307e3385613b0e565b815260200190815260200160002060020160008154809291906130a090614ad0565b91905055505b5050565b67136dcc951d8c00003410156130f5576040517f08c379a00000000000000000000000000000000000000000000000000000000081526004016130ec9061586d565b60405180910390fd5b6130fe816139b4565b61313d576040517f08c379a0000000000000000000000000000000000000000000000000000000008152600401613134906158d9565b60405180910390fd5b613145613a62565b613184576040517f08c379a000000000000000000000000000000000000000000000000000000000815260040161317b90615945565b60405180910390fd5b60006001811115613198576131976142a0565b5b600660008373ffffffffffffffffffffffffffffffffffffffff1673ffffffffffffffffffffffffffffffffffffffff16815260200190815260200160002060060160009054906101000a900460ff1660018111156131fa576131f96142a0565b5b1461323a576040517f08c379a0000000000000000000000000000000000000000000000000000000008152600401613231906159b1565b60405180910390fd5b3373ffffffffffffffffffffffffffffffffffffffff16600f600061325f3385613b0e565b815260200190815260200160002060010160009054906101000a900473ffffffffffffffffffffffffffffffffffffffff1673ffffffffffffffffffffffffffffffffffffffff16036132e7576040517f08c379a00000000000000000000000000000000000000000000000000000000081526004016132de90615a1d565b60405180910390fd5b3373ffffffffffffffffffffffffffffffffffffffff168173ffffffffffffffffffffffffffffffffffffffff1603613355576040517f08c379a000000000000000000000000000000000000000000000000000000000815260040161334c90615a89565b60405180910390fd5b603c600f60006133653385613b0e565b8152602001908152602001600020600001546133819190614d15565b42116133c2576040517f08c379a00000000000000000000000000000000000000000000000000000000081526004016133b990615af5565b60405180910390fd5b42600f60006133d13385613b0e565b81526020019081526020016000206000018190555033600f60006133f53385613b0e565b815260200190815260200160002060010160006101000a81548173ffffffffffffffffffffffffffffffffffffffff021916908373ffffffffffffffffffffffffffffffffffffffff1602179055506004600f60006134543385613b0e565b815260200190815260200160002060020181905550600f60006134773384613b0e565b8152602001908152602001600020600f60006134933385613b0e565b8152602001908152602001600020600082015481600001556001820160009054906101000a900473ffffffffffffffffffffffffffffffffffffffff168160010160006101000a81548173ffffffffffffffffffffffffffffffffffffffff021916908373ffffffffffffffffffffffffffffffffffffffff160217905550600282015481600201556003820160009054906101000a900460ff168160030160006101000a81548160ff0219169083151502179055506003820160019054906101000a900460ff168160030160016101000a81548160ff0219169083151502179055509050506001600660008373ffffffffffffffffffffffffffffffffffffffff1673ffffffffffffffffffffffffffffffffffffffff16815260200190815260200160002060060160006101000a81548160ff021916908360018111156135df576135de6142a0565b5b02179055503373ffffffffffffffffffffffffffffffffffffffff168173ffffffffffffffffffffffffffffffffffffffff167f78c788d36ccd7a26bc7352a23206f21e28ada53c4234ceedeff07ef9da98184f600f60006136413387613b0e565b815260200190815260200160002060405161365c9190615c77565b60405180910390a350565b61366f613ba6565b600660008373ffffffffffffffffffffffffffffffffffffffff1673ffffffffffffffffffffffffffffffffffffffff16815260200190815260200160002060405180610120016040529081600082015481526020016001820180546136d4906149c7565b80601f0160208091040260200160405190810160405280929190818152602001828054613700906149c7565b801561374d5780601f106137225761010080835404028352916020019161374d565b820191906000526020600020905b81548152906001019060200180831161373057829003601f168201915b505050505081526020016002820160009054906101000a900473ffffffffffffffffffffffffffffffffffffffff1673ffffffffffffffffffffffffffffffffffffffff1673ffffffffffffffffffffffffffffffffffffffff168152602001600382015481526020016004820180548060200260200160405190810160405280929190818152602001828054801561383b57602002820191906000526020600020905b8160009054906101000a900473ffffffffffffffffffffffffffffffffffffffff1673ffffffffffffffffffffffffffffffffffffffff16815260200190600101908083116137f1575b50505050508152602001600582015481526020016006820160009054906101000a900460ff166001811115613873576138726142a0565b5b6001811115613885576138846142a0565b5b8152602001600782018054613899906149c7565b80601f01602080910402602001604051908101604052809291908181526020018280546138c5906149c7565b80156139125780601f106138e757610100808354040283529160200191613912565b820191906000526020600020905b8154815290600101906020018083116138f557829003601f168201915b5050505050815260200160088201805461392b906149c7565b80601f0160208091040260200160405190810160405280929190818152602001828054613957906149c7565b80156139a45780601f10613979576101008083540402835291602001916139a4565b820191906000526020600020905b81548152906001019060200180831161398757829003601f168201915b5050505050815250509050919050565b600080600090505b600180549050811015613a57578273ffffffffffffffffffffffffffffffffffffffff16600182815481106139f4576139f36148f2565b5b9060005260206000200160009054906101000a900473ffffffffffffffffffffffffffffffffffffffff1673ffffffffffffffffffffffffffffffffffffffff1603613a44576001915050613a5d565b8080613a4f90614950565b9150506139bc565b50600090505b919050565b600080600090505b600080549050811015613b05573373ffffffffffffffffffffffffffffffffffffffff1660008281548110613aa257613aa16148f2565b5b9060005260206000200160009054906101000a900473ffffffffffffffffffffffffffffffffffffffff1673ffffffffffffffffffffffffffffffffffffffff1603613af2576001915050613b0b565b8080613afd90614950565b915050613a6a565b50600090505b90565b60008173ffffffffffffffffffffffffffffffffffffffff168373ffffffffffffffffffffffffffffffffffffffff161015613b74578282604051602001613b57929190615cda565b604051602081830303815290604052805190602001209050613ba0565b8183604051602001613b87929190615cda565b6040516020818303038152906040528051906020012090505b92915050565b6040518061012001604052806000815260200160608152602001600073ffffffffffffffffffffffffffffffffffffffff16815260200160008152602001606081526020016000815260200160006001811115613c0657613c056142a0565b5b815260200160608152602001606081525090565b828054828255906000526020600020908101928215613c93579160200282015b82811115613c925782518260006101000a81548173ffffffffffffffffffffffffffffffffffffffff021916908373ffffffffffffffffffffffffffffffffffffffff16021790555091602001919060010190613c3a565b5b509050613ca09190613d34565b5090565b828054828255906000526020600020908101928215613ce55760005260206000209182015b82811115613ce4578254825591600101919060010190613cc9565b5b509050613cf29190613d34565b5090565b60405180608001604052806000815260200160608152602001600073ffffffffffffffffffffffffffffffffffffffff168152602001606081525090565b5b80821115613d4d576000816000905550600101613d35565b5090565b6000604051905090565b600080fd5b600080fd5b600073ffffffffffffffffffffffffffffffffffffffff82169050919050565b6000613d9082613d65565b9050919050565b613da081613d85565b8114613dab57600080fd5b50565b600081359050613dbd81613d97565b92915050565b600060208284031215613dd957613dd8613d5b565b5b6000613de784828501613dae565b91505092915050565b600081519050919050565b600082825260208201905092915050565b6000819050602082019050919050565b6000819050919050565b613e2f81613e1c565b82525050565b600081519050919050565b600082825260208201905092915050565b60005b83811015613e6f578082015181840152602081019050613e54565b60008484015250505050565b6000601f19601f8301169050919050565b6000613e9782613e35565b613ea18185613e40565b9350613eb1818560208601613e51565b613eba81613e7b565b840191505092915050565b6000608083016000830151613edd6000860182613e26565b5060208301518482036020860152613ef58282613e8c565b9150506040830151613f0a6040860182613e26565b506060830151613f1d6060860182613e26565b508091505092915050565b6000613f348383613ec5565b905092915050565b6000602082019050919050565b6000613f5482613df0565b613f5e8185613dfb565b935083602082028501613f7085613e0c565b8060005b85811015613fac5784840389528151613f8d8582613f28565b9450613f9883613f3c565b925060208a01995050600181019050613f74565b50829750879550505050505092915050565b60006020820190508181036000830152613fd88184613f49565b905092915050565b613fe981613e1c565b8114613ff457600080fd5b50565b60008135905061400681613fe0565b92915050565b60008115159050919050565b6140218161400c565b811461402c57600080fd5b50565b60008135905061403e81614018565b92915050565b6000806040838503121561405b5761405a613d5b565b5b600061406985828601613ff7565b925050602061407a8582860161402f565b9150509250929050565b61408d8161400c565b82525050565b60006020820190506140a86000830184614084565b92915050565b600081519050919050565b600082825260208201905092915050565b6000819050602082019050919050565b6140e381613d85565b82525050565b600060608301600083015161410160008601826140da565b5060208301516141146020860182613e26565b506040830151848203604086015261412c8282613e8c565b9150508091505092915050565b600061414583836140e9565b905092915050565b6000602082019050919050565b6000614165826140ae565b61416f81856140b9565b935083602082028501614181856140ca565b8060005b858110156141bd578484038952815161419e8582614139565b94506141a98361414d565b925060208a01995050600181019050614185565b50829750879550505050505092915050565b600060208201905081810360008301526141e9818461415a565b905092915050565b600081519050919050565b600082825260208201905092915050565b6000819050602082019050919050565b600061422983836140da565b60208301905092915050565b6000602082019050919050565b600061424d826141f1565b61425781856141fc565b93506142628361420d565b8060005b8381101561429357815161427a888261421d565b975061428583614235565b925050600181019050614266565b5085935050505092915050565b7f4e487b7100000000000000000000000000000000000000000000000000000000600052602160045260246000fd5b600281106142e0576142df6142a0565b5b50565b60008190506142f1826142cf565b919050565b6000614301826142e3565b9050919050565b614311816142f6565b82525050565b6000610120830160008301516143306000860182613e26565b50602083015184820360208601526143488282613e8c565b915050604083015161435d60408601826140da565b5060608301516143706060860182613e26565b50608083015184820360808601526143888282614242565b91505060a083015161439d60a0860182613e26565b5060c08301516143b060c0860182614308565b5060e083015184820360e08601526143c88282613e8c565b9150506101008301518482036101008601526143e48282613e8c565b9150508091505092915050565b6000602082019050818103600083015261440b8184614317565b905092915050565b600080fd5b600080fd5b600080fd5b60008083601f84011261443857614437614413565b5b8235905067ffffffffffffffff81111561445557614454614418565b5b6020830191508360018202830111156144715761447061441d565b5b9250929050565b6000806020838503121561448f5761448e613d5b565b5b600083013567ffffffffffffffff8111156144ad576144ac613d60565b5b6144b985828601614422565b92509250509250929050565b6144ce81613e1c565b82525050565b60006020820190506144e960008301846144c5565b92915050565b600080fd5b7f4e487b7100000000000000000000000000000000000000000000000000000000600052604160045260246000fd5b61452c82613e7b565b810181811067ffffffffffffffff8211171561454b5761454a6144f4565b5b80604052505050565b600061455e613d51565b905061456a8282614523565b919050565b600067ffffffffffffffff82111561458a576145896144f4565b5b61459382613e7b565b9050602081019050919050565b82818337600083830152505050565b60006145c26145bd8461456f565b614554565b9050828152602081018484840111156145de576145dd6144ef565b5b6145e98482856145a0565b509392505050565b600082601f83011261460657614605614413565b5b81356146168482602086016145af565b91505092915050565b60006020828403121561463557614634613d5b565b5b600082013567ffffffffffffffff81111561465357614652613d60565b5b61465f848285016145f1565b91505092915050565b60006020828403121561467e5761467d613d5b565b5b600061468c84828501613ff7565b91505092915050565b600080600080600080606087890312156146b2576146b1613d5b565b5b600087013567ffffffffffffffff8111156146d0576146cf613d60565b5b6146dc89828a01614422565b9650965050602087013567ffffffffffffffff8111156146ff576146fe613d60565b5b61470b89828a01614422565b9450945050604087013567ffffffffffffffff81111561472e5761472d613d60565b5b61473a89828a01614422565b92509250509295509295509295565b60008060006040848603121561476257614761613d5b565b5b600061477086828701613dae565b935050602084013567ffffffffffffffff81111561479157614790613d60565b5b61479d86828701614422565b92509250509250925092565b60006080830160008301516147c16000860182613e26565b50602083015184820360208601526147d98282613e8c565b91505060408301516147ee60408601826140da565b50606083015184820360608601526148068282614242565b9150508091505092915050565b6000602082019050818103600083015261482d81846147a9565b905092915050565b6000806040838503121561484c5761484b613d5b565b5b600061485a85828601613dae565b925050602061486b8582860161402f565b9150509250929050565b600082825260208201905092915050565b7f616c726561647920756e666f6c6c6f7765640000000000000000000000000000600082015250565b60006148bc601283614875565b91506148c782614886565b602082019050919050565b600060208201905081810360008301526148eb816148af565b9050919050565b7f4e487b7100000000000000000000000000000000000000000000000000000000600052603260045260246000fd5b7f4e487b7100000000000000000000000000000000000000000000000000000000600052601160045260246000fd5b600061495b82613e1c565b91507fffffffffffffffffffffffffffffffffffffffffffffffffffffffffffffffff820361498d5761498c614921565b5b600182019050919050565b7f4e487b7100000000000000000000000000000000000000000000000000000000600052602260045260246000fd5b600060028204905060018216806149df57607f821691505b6020821081036149f2576149f1614998565b5b50919050565b7f6f6e6c7920696e7372727563746f722063616e20726576696577000000000000600082015250565b6000614a2e601a83614875565b9150614a39826149f8565b602082019050919050565b60006020820190508181036000830152614a5d81614a21565b9050919050565b7f6f6e6c79206f6e63650000000000000000000000000000000000000000000000600082015250565b6000614a9a600983614875565b9150614aa582614a64565b602082019050919050565b60006020820190508181036000830152614ac981614a8d565b9050919050565b6000614adb82613e1c565b915060008203614aee57614aed614921565b5b600182039050919050565b7f7573657220646f65736e74206578697374000000000000000000000000000000600082015250565b6000614b2f601183614875565b9150614b3a82614af9565b602082019050919050565b60006020820190508181036000830152614b5e81614b22565b9050919050565b7f6f6e6c7920757365722063616e20666f6c6c6f77000000000000000000000000600082015250565b6000614b9b601483614875565b9150614ba682614b65565b602082019050919050565b60006020820190508181036000830152614bca81614b8e565b9050919050565b7f6f6e6c7920696e7374727563746f722063616e20626520666f6c6c6f77656400600082015250565b6000614c07601f83614875565b9150614c1282614bd1565b602082019050919050565b60006020820190508181036000830152614c3681614bfa565b9050919050565b7f616c726561647920666f6c6c6f77696e67000000000000000000000000000000600082015250565b6000614c73601183614875565b9150614c7e82614c3d565b602082019050919050565b60006020820190508181036000830152614ca281614c66565b9050919050565b7f6f6e6c7920696e7374727563746f720000000000000000000000000000000000600082015250565b6000614cdf600f83614875565b9150614cea82614ca9565b602082019050919050565b60006020820190508181036000830152614d0e81614cd2565b9050919050565b6000614d2082613e1c565b9150614d2b83613e1c565b9250828201905080821115614d4357614d42614921565b5b92915050565b7f74696d6520657870697265640000000000000000000000000000000000000000600082015250565b6000614d7f600c83614875565b9150614d8a82614d49565b602082019050919050565b60006020820190508181036000830152614dae81614d72565b9050919050565b6000614dc082613e1c565b9150614dcb83613e1c565b9250828202614dd981613e1c565b91508282048414831517614df057614def614921565b5b5092915050565b6000614e0282613e1c565b9150614e0d83613e1c565b9250828203905081811115614e2557614e24614921565b5b92915050565b7f796f7520686176652077697468647261776e0000000000000000000000000000600082015250565b6000614e61601283614875565b9150614e6c82614e2b565b602082019050919050565b60006020820190508181036000830152614e9081614e54565b9050919050565b7f6f70656e20616e206163636f756e742066697273740000000000000000000000600082015250565b6000614ecd601583614875565b9150614ed882614e97565b602082019050919050565b60006020820190508181036000830152614efc81614ec0565b9050919050565b7f6f6e6c7920696e7374727574636f722063616e20706f73740000000000000000600082015250565b6000614f39601883614875565b9150614f4482614f03565b602082019050919050565b60006020820190508181036000830152614f6881614f2c565b9050919050565b60008190508160005260206000209050919050565b60006020601f8301049050919050565b600082821b905092915050565b600060088302614fd17fffffffffffffffffffffffffffffffffffffffffffffffffffffffffffffffff82614f94565b614fdb8683614f94565b95508019841693508086168417925050509392505050565b6000819050919050565b600061501861501361500e84613e1c565b614ff3565b613e1c565b9050919050565b6000819050919050565b61503283614ffd565b61504661503e8261501f565b848454614fa1565b825550505050565b600090565b61505b61504e565b615066818484615029565b505050565b5b8181101561508a5761507f600082615053565b60018101905061506c565b5050565b601f8211156150cf576150a081614f6f565b6150a984614f84565b810160208510156150b8578190505b6150cc6150c485614f84565b83018261506b565b50505b505050565b600082821c905092915050565b60006150f2600019846008026150d4565b1980831691505092915050565b600061510b83836150e1565b9150826002028217905092915050565b61512482613e35565b67ffffffffffffffff81111561513d5761513c6144f4565b5b61514782546149c7565b61515282828561508e565b600060209050601f8311600181146151855760008415615173578287015190505b61517d85826150ff565b8655506151e5565b601f19841661519386614f6f565b60005b828110156151bb57848901518255600182019150602085019450602081019050615196565b868310156151d857848901516151d4601f8916826150e1565b8355505b6001600288020188555050505b505050505050565b6000815490506151fc816149c7565b9050919050565b8181036152115750506152e9565b61521a826151ed565b67ffffffffffffffff811115615233576152326144f4565b5b61523d82546149c7565b61524882828561508e565b6000601f8311600181146152775760008415615265578287015490505b61526f85826150ff565b8655506152e2565b601f19841661528587614f6f565b965061529086614f6f565b60005b828110156152b857848901548255600182019150600185019450602081019050615293565b868310156152d557848901546152d1601f8916826150e1565b8355505b6001600288020188555050505b5050505050505b565b7f757365726e616d652063616e277420626520656d707479000000000000000000600082015250565b6000615321601783614875565b915061532c826152eb565b602082019050919050565b6000602082019050818103600083015261535081615314565b9050919050565b7f616c726561647920726567697374657265640000000000000000000000000000600082015250565b600061538d601283614875565b915061539882615357565b602082019050919050565b600060208201905081810360008301526153bc81615380565b9050919050565b7f696e7374727563746f722063616e27742072656769737465722061732075736560008201527f7200000000000000000000000000000000000000000000000000000000000000602082015250565b600061541f602183614875565b915061542a826153c3565b604082019050919050565b6000602082019050818103600083015261544e81615412565b9050919050565b7f616c7265616479206c696b656400000000000000000000000000000000000000600082015250565b600061548b600d83614875565b915061549682615455565b602082019050919050565b600060208201905081810360008301526154ba8161547e565b9050919050565b7f6f6e6c7920666f6c6c6f77657200000000000000000000000000000000000000600082015250565b60006154f7600d83614875565b9150615502826154c1565b602082019050919050565b60006020820190508181036000830152615526816154ea565b9050919050565b7f757365726e616d6520616e642066696c65686173682063616e2774206265206560008201527f6d70747900000000000000000000000000000000000000000000000000000000602082015250565b6000615589602483614875565b91506155948261552d565b604082019050919050565b600060208201905081810360008301526155b88161557c565b9050919050565b7f757365722063616e2774206265206120696e7374727563746f72000000000000600082015250565b60006155f5601a83614875565b9150615600826155bf565b602082019050919050565b60006020820190508181036000830152615624816155e8565b9050919050565b7f7265676973746572206669727374000000000000000000000000000000000000600082015250565b6000615661600e83614875565b915061566c8261562b565b602082019050919050565b6000602082019050818103600083015261569081615654565b9050919050565b7f3120636f6e20746f696e7374727563746f720000000000000000000000000000600082015250565b60006156cd601283614875565b91506156d882615697565b602082019050919050565b600060208201905081810360008301526156fc816156c0565b9050919050565b50565b6000615713600083614875565b915061571e82615703565b600082019050919050565b6000602082019050818103600083015261574281615706565b9050919050565b7f6162630000000000000000000000000000000000000000000000000000000000600082015250565b600061577f600383614875565b915061578a82615749565b602082019050919050565b600060208201905081810360008301526157ae81615772565b9050919050565b7f616c6c20666f757220616e737765726564000000000000000000000000000000600082015250565b60006157eb601183614875565b91506157f6826157b5565b602082019050919050565b6000602082019050818103600083015261581a816157de565b9050919050565b7f6e6f7420656e6f75676820657468657200000000000000000000000000000000600082015250565b6000615857601083614875565b915061586282615821565b602082019050919050565b600060208201905081810360008301526158868161584a565b9050919050565b7f6e6f7420616e20696e7374727563746f72000000000000000000000000000000600082015250565b60006158c3601183614875565b91506158ce8261588d565b602082019050919050565b600060208201905081810360008301526158f2816158b6565b9050919050565b7f6f6e6c7920757365722063616e20616363657373000000000000000000000000600082015250565b600061592f601483614875565b915061593a826158f9565b602082019050919050565b6000602082019050818103600083015261595e81615922565b9050919050565b7f696e7374727563746f72206e6f74206672656500000000000000000000000000600082015250565b600061599b601383614875565b91506159a682615965565b602082019050919050565b600060208201905081810360008301526159ca8161598e565b9050919050565b7f616c72656164792061737369676e656400000000000000000000000000000000600082015250565b6000615a07601083614875565b9150615a12826159d1565b602082019050919050565b60006020820190508181036000830152615a36816159fa565b9050919050565b7f796f752063616e277420636f6e6e65637420746f20796f757273656c66000000600082015250565b6000615a73601d83614875565b9150615a7e82615a3d565b602082019050919050565b60006020820190508181036000830152615aa281615a66565b9050919050565b7f726f6f6d206973206f70656e6564000000000000000000000000000000000000600082015250565b6000615adf600e83614875565b9150615aea82615aa9565b602082019050919050565b60006020820190508181036000830152615b0e81615ad2565b9050919050565b60008160001c9050919050565b6000819050919050565b6000615b3f615b3a83615b15565b615b22565b9050919050565b600073ffffffffffffffffffffffffffffffffffffffff82169050919050565b6000615b79615b7483615b15565b615b46565b9050919050565b600060ff82169050919050565b6000615ba0615b9b83615b15565b615b80565b9050919050565b615bb08161400c565b82525050565b60008160081c9050919050565b6000615bd6615bd183615bb6565b615b80565b9050919050565b60a082016000808301549050615bf281615b2c565b615bff6000860182613e26565b5060018301549050615c1081615b66565b615c1d60208601826140da565b5060028301549050615c2e81615b2c565b615c3b6040860182613e26565b5060038301549050615c4c81615b8d565b615c596060860182615ba7565b50615c6381615bc3565b615c706080860182615ba7565b5050505050565b600060a082019050615c8c6000830184615bdd565b92915050565b60008160601b9050919050565b6000615caa82615c92565b9050919050565b6000615cbc82615c9f565b9050919050565b615cd4615ccf82613d85565b615cb1565b82525050565b6000615ce68285615cc3565b601482019150615cf68284615cc3565b601482019150819050939250505056fea2646970667358221220c60003082ca137df2a028fe15cb2702f20c450db7b50c5f8b02db0da5f117af064736f6c63430008130033",
  "immutableReferences": {},
  "source": "// SPDX-License-Identifier: MIT\npragma solidity >=0.8.0;\n\ncontract Twitter {\naddress[] getalluser;\naddress[] allinstructor;\nuint userid;\nuint instructorid;\nuint postid;\nenum Status{\nFree,\nBusy\n}\nstruct User{\nuint ID;\nstring username;\naddress pubkey;\naddress[] following;\n}\nstruct Instructor{\nuint ID;\nstring username;\naddress pubkey;\nuint nooffollower;\naddress[] followers;\nuint postcount;\nStatus status;\nstring fileHash;\nstring qr;\n}\nstruct Post{\nuint ID;\nstring content;\nuint nooflikes;\nuint upvote;\n}\nstruct Message{\naddress sender;\nuint timestamp;\nstring message;\n}\nmapping (bytes32 => Message[]) messages;\n\nmapping (address=>Instructor) addresstoInstructor;\nmapping (address => Post[]) allpostoftheinstructor;\nmapping (address => User) addresstouser;\nmapping(uint => address) postidtoaddress;\n\nPost[] allposts;\nUser[] users;\nInstructor[] instructors;\n\n\nfunction checkfollowing(address _address) public view returns(bool){\nfor(uint i=0;i<addresstouser[msg.sender].following.length;i++){\nif(addresstouser[msg.sender].following[i]==_address){\nreturn true;\n}\n}\nreturn false;\n}\nfunction checkotheruser(address _address) public view returns(bool){\nfor(uint i=0;i<getalluser.length;i++){\nif(getalluser[i]==_address){\nreturn true;\n}\n}\nreturn false;\n}\nfunction checkuserexist() public view returns(bool){\nfor(uint i=0;i<getalluser.length;i++){\nif(getalluser[i]==msg.sender){\nreturn true;\n}\n}\nreturn false;\n}\nfunction checkinstructorexist() public view returns(bool){\nfor(uint i=0;i<allinstructor.length;i++){\nif(allinstructor[i]==msg.sender){\nreturn true;\n}\n}\nreturn false;\n}\nfunction checkotherinstructorexist(address _address1) public view returns(bool){\nfor(uint i=0;i<allinstructor.length;i++){\nif(allinstructor[i]==_address1){\nreturn true;\n}\n}\nreturn false;\n}\n\nfunction registerasUser(string memory _username) public{\nrequire(bytes(_username).length>0,\"username can't be empty\");\nrequire(!checkuserexist(),\"already registered\");\nrequire(!checkinstructorexist(),\"instructor can't register as user\"); //premium functionality if time\nusers.push(User(userid,_username,msg.sender,new address[](0)));\naddresstouser[msg.sender]=users[userid];\ngetalluser.push(msg.sender);\nuserid++;\n}// DONE\nfunction registerasInstructor(string calldata _username,string calldata _filehash,string calldata _qr) public{\nrequire(bytes(_username).length>0 && bytes(_filehash).length>0,\"username and filehash can't be empty\");\nrequire(!checkuserexist(),\"user can't be a instructor\");\nrequire(!checkinstructorexist(),\"instructor can't register as user\");\ninstructors.push(Instructor(instructorid,_username,msg.sender,0,new address[](0),0,Status.Free,_filehash,_qr));\nallinstructor.push(msg.sender);\naddresstoInstructor[msg.sender]=instructors[instructorid];\ninstructorid++;\n}//\n\n// TO CHECK THE NO OF FOLLOWERS\nfunction showinstructor(address _address) public view returns(Instructor memory){\nreturn addresstoInstructor[_address];\n}\n\nfunction follow(address _address) public{\nrequire(checkuserexist(),\"only user can follow\"); //only user can follow\nrequire(!checkotheruser(_address),\"only instructor can be followed\");\nrequire(!checkfollowing(_address),\"already following\");\naddresstoInstructor[_address].nooffollower++;\naddresstoInstructor[_address].followers.push(msg.sender);\ninstructors[addresstoInstructor[_address].ID].nooffollower++;\naddresstouser[msg.sender].following.push(_address);\n}\n\nfunction showusername(address _address) public view returns( User memory ){\nrequire(checkotheruser(_address),\"abc\");\nreturn addresstouser[_address];\n}\n\nfunction createpost(string calldata _cid) public{\nrequire(checkinstructorexist(),\"only instrutcor can post\");\nallposts.push(Post(postid,_cid,0,0));\naddresstoInstructor[msg.sender].postcount++;\nallpostoftheinstructor[msg.sender].push(allposts[postid]);\npostidtoaddress[postid]=msg.sender;\npostid++;\n} // Done\nfunction showpostcount() view public returns(uint){\nreturn addresstoInstructor[msg.sender].postcount;\n} //. Done\nfunction showpost() public view returns(Post[] memory){\nreturn allposts;\n}//------->DONE\nmapping (address => mapping(uint =>bool)) liked;\nfunction likepost(uint _id) public{\nrequire(!liked[msg.sender][_id], \"already liked\");\nliked[msg.sender][_id] = true;\nallposts[_id].nooflikes++;\n}//. DONE\n\nfunction unfollow(address _address) public{\nrequire(checkfollowing(_address),\"already unfollowed\");\nfor(uint i=0;i<addresstouser[msg.sender].following.length;i++){\nif(addresstouser[msg.sender].following[i]==_address){\ndelete addresstouser[msg.sender].following[i];\nbreak;\n}\n}\nfor(uint i=0;i<addresstoInstructor[_address].followers.length;i++){\nif(addresstoInstructor[_address].followers[i]==msg.sender){\ndelete addresstoInstructor[_address].followers[i];\nbreak;\n}\n}\n}\n\nfunction showpostofanaddress(address _address) public view returns(Post[] memory){\nrequire(checkfollowing(_address),\"only follower\"); //need to be followed by the caller\nreturn allpostoftheinstructor[_address];\n}\n// constructor() payable {\n// payable(address(this)).transfer(5 ether);\n// }\nreceive() external payable{}\nmapping (address => mapping(uint =>bool)) reviewed;\nfunction review(uint _id,bool _check) public payable {\n//require(allpostoftheinstructor[msg.sender][_id].ID!=_id, \"message\");\nrequire(checkinstructorexist(), \"only insrructor can review\");\nrequire(!reviewed[msg.sender][_id],\"only once\");\nreviewed[msg.sender][_id]=true;\nif(_check==true){\nallposts[_id].upvote++;\npayable (msg.sender).transfer(0.001 ether);\npayable(postidtoaddress[_id]).transfer(0.001 ether);\n}\nelse{\nallposts[_id].upvote--;\n}\n}\nfunction getinstructirsusername(address _address) public view returns(Instructor memory){\nrequire(checkotherinstructorexist(_address),\"user doesnt exist\");\nreturn addresstoInstructor[_address];\n}\n// DMS PART STARTED\n\nevent roomcreated(address indexed _instructor, address indexed _user,room);\nstruct room{\nuint time;\naddress to;\nuint no;\nbool userwithdraw;\nbool instructorwithdraw;\n}\nmapping (bytes32 => room) instructorassign;\nfunction connectwithinstructor(address _address) public payable{\nrequire(msg.value>=1.4 ether,\"not enough ether\"); //1ether se zyada pay kiya hai ya nhi\nrequire(checkotherinstructorexist(_address), \"not an instructor\"); //is he really a instructor??\nrequire(checkuserexist(),\"only user can access\");\nrequire(addresstoInstructor[_address].status==Status.Free,\"instructor not free\");//is instructor free?\nrequire(instructorassign[_getchatcode(msg.sender, _address)].to!=msg.sender,\"already assigned\");\nrequire(_address!=msg.sender,\"you can't connect to yourself\");//you can't connect yourself\nif(block.timestamp<=instructorassign[_getchatcode(msg.sender, _address)].time+60){\n    revert(\"room is opened\");\n}\ninstructorassign[_getchatcode(msg.sender, _address)].time=block.timestamp;\ninstructorassign[_getchatcode(msg.sender, _address)].to=msg.sender;\ninstructorassign[_getchatcode(msg.sender, _address)].no=4;\ninstructorassign[_getchatcode(msg.sender, _address)]=instructorassign[_getchatcode(msg.sender, _address)];\naddresstoInstructor[_address].status=Status.Busy;\nemit roomcreated(_address,msg.sender,instructorassign[_getchatcode(msg.sender, _address)]);\n}\nfunction sendMessage(address _address2, string calldata _msg) public{\nrequire(checkuserexist() || checkinstructorexist(), \"register first\");\nif(checkuserexist()){\nrequire(instructorassign[_getchatcode(msg.sender, _address2)].to==msg.sender,\"1 con toinstructor\");\nrequire(block.timestamp <=instructorassign[_getchatcode(msg.sender, _address2)].time+60 ,\"time expired\");\n}\nelse{\nrequire(instructorassign[_getchatcode(msg.sender, _address2)].to==_address2,\"\");\nrequire(block.timestamp <=instructorassign[_getchatcode(msg.sender, _address2)].time+60 ,\"time expired\");\n}\n//time expire toh nhi hua??\nbytes32 chatcode = _getchatcode(msg.sender, _address2);\nmessages[chatcode].push(Message(msg.sender,block.timestamp,_msg));\n}\n\nfunction satisfied(address _address,bool check) public {\nrequire(checkuserexist() && instructorassign[_getchatcode(msg.sender, _address)].no>=0,\"all four answered\");\nif(check ==true){\ninstructorassign[_getchatcode(msg.sender, _address)].no--;\n}\n}\n\nfunction withdrawFunds(address _address) public payable {\nrequire(checkinstructorexist() || checkuserexist(), \"only instructor\");\nrequire(block.timestamp>=instructorassign[_getchatcode(msg.sender, _address)].time+60,\"time expired\");\nuint amountToWithdrawbyuser = instructorassign[_getchatcode(msg.sender, _address)].no * (0.25 ether); // 1 ether per question\nuint amounttoWithdrawbyinstructor = (4-instructorassign[_getchatcode(msg.sender, _address)].no)*(0.25 ether);\n//require(address(this).balance >= amountToWithdrawbyuser, \"Contract balance insufficient\");\nif(checkuserexist()){\n    require(instructorassign[_getchatcode(msg.sender, _address)].userwithdraw==false,\"you have withdrawn\");\n    payable(msg.sender).transfer(amountToWithdrawbyuser);\n    instructorassign[_getchatcode(msg.sender, _address)].userwithdraw=true;\n}\nelse if(checkinstructorexist()){\n    require(instructorassign[_getchatcode(msg.sender, _address)].instructorwithdraw==false,\"you have withdrawn\");\n    payable(msg.sender).transfer(amounttoWithdrawbyinstructor);\n    instructorassign[_getchatcode(msg.sender, _address)].instructorwithdraw=true;\n    addresstoInstructor[msg.sender].status=Status.Free;\n}\nelse{\n    revert(\"open an account first\");\n}\n}\n\n\nfunction readMessage(address _address2) external view returns(Message[] memory){\nbytes32 chatcode= _getchatcode(msg.sender, _address2);\nreturn messages[chatcode];\n}\nfunction _getchatcode(address _address1,address _address2) internal pure returns(bytes32){\nif(_address1 < _address2){\nreturn keccak256(abi.encodePacked(_address1,_address2));\n}\nelse{\nreturn keccak256(abi.encodePacked(_address2,_address1));\n}\n}\n}",
  "sourcePath": "/Users/kaustubhsharma/Desktop/twitter/contracts/twitter.sol",
  "compiler": {
    "name": "solc",
    "version": "0.8.19+commit.7dd6d404.Emscripten.clang"
  },
  "schemaVersion": "3.4.15",
  "updatedAt": "2023-10-12T03:52:29.322Z",
  "networkType": "ethereum",
  "devdoc": {
    "kind": "dev",
    "methods": {},
    "version": 1
  },
  "userdoc": {
    "kind": "user",
    "methods": {},
    "version": 1
  }
}